:020000040000FA
:100000000A128A11FC2FFF1B0D2883137F188317F8
:100010000008840A0319FF0A08007F087F398A0054
:0A0020000408840A0319FF0A820095
:100DA000F000831203130C1ED62ED72ED12E7008FE
:100DB000990008000A128A110E270A128A110A12D3
:100DC0008A113A270A128A11DF2E0A128A11002884
:100DD0007330F3007308F600F32E77080A128A11B5
:100DE000D0260A128A117208F4007108F300F10A81
:100DF0000319F20A740883120313FF0073088400B6
:100E00000A128A1103200A128A11F5007508F700E8
:100E10007708031D0C2F0D2FED2E080083160317E6
:100E20008801890183160313850186018312031348
:100E300085018601831603130F1470308F04181276
:100E40001815831603178715CF30831603139900DF
:100E50009A01831203139817181318168316031395
:100E600098168B170B178C160C16831203130C1283
:100E70008C1208000430FA000C30F9003330F8000E
:100E8000F80B402FF90B402FFA0B402F472FF13072
:100E9000F1008830F2000A128A11E8260A128A113B
:100EA0000430FA000C30F9003330F800F80B562FFC
:100EB000F90B562FFA0B562F5D2FCC30F1008830EE
:100EC000F2000A128A11E8260A128A110430FA0086
:100ED0000C30F9003330F800F80B6C2FF90B6C2F45
:100EE000FA0B6C2F732F0F30F1008930F2000A12C9
:100EF0008A11E8260A128A110430FA000C30F9002F
:100F00003330F800F80B822FF90B822FFA0B822F67
:100F1000892F2530F1008930F2000A128A11E82663
:100F20000A128A11831203138C1E972F982F922F67
:100F300031301A06031D9D2F9E2FB52F0630FA0063
:100F40001330F900AD30F800F80BA42FF90BA42FE3
:100F5000FA0BA42FAB2F3C30F1008830F2000A12BC
:100F60008A11E8260A128A11FB2F32301A06031D55
:100F7000BA2FBB2FCD2F6E30F1008830F2000A124D
:100F80008A11E8260A128A11831203138C1EC92FB4
:100F9000CA2FC42F1A088500FB2F33301A06031DF1
:100FA000D22FD32FE52F9D30F1008830F2000A12A6
:100FB0008A11E8260A128A11831203138C1EE12F6C
:100FC000E22FDC2F1A088600FB2F0630FA001330C0
:100FD000F900AD30F800F80BEB2FF90BEB2FFA0B03
:100FE000EB2FF22F0030F1008830F2000A128A1144
:100FF000E8260A128A11080083010A128A11DA2EE1
:101000000D342034613420346D3469342034733429
:10101000653420346D34653420346834613463348D
:101020006534203471347534653420346E346F3453
:1010300020347334653420347634613420346134A0
:10104000203470346F3464346534653472342E3433
:101050002E342E34703472346F3462346134203460
:1010600075346E34613420346F34703463346934D1
:101070006F346E340D3400340D34203451347534F3
:1010800065342034743461347334203465347334FB
:1010900070346534723461346E3464346F343F3488
:1010A00020346534733420346C346F342034753418
:1010B0006E34693463346F3420347134753465347C
:1010C00020346834613467346F342E342E342E3437
:1010D00055347734553420340D3400340D342034F5
:1010E00049346E3473346534723474346134723418
:1010F000203463346134723461346334743465345D
:101100007234203470346134723461342034643485
:101110006534733470346C346534673461347234DC
:10112000203465346E34203450344F3452345434C7
:1011300041343A3420340D3400340D3420344934F1
:101140006E347334653472347434613472342034E0
:1011500063346134723461346334743465347234AA
:101160002034703461347234613420346434653432
:10117000733470346C3465346734613472342034C1
:1011800065346E34203450344F3452345434423445
:101190003A3420340D34003431342E342034443485
:1011A0006534733470346C3465346734613472344C
:1011B000203463346134643465346E3461342034F3
:1011C000643465342034633461347234613463349C
:1011D000743465347234653473343A3420340D34E5
:1011E00000340D3420344534733463346F34673441
:1011F0006534203475346E34613420346F34703487
:10120000633469346F346E342C342034633468347E
:10121000613476346F343A3420340D34003432344F
:101220002E34203444346534733470346C34653473
:10123000673461347234203450344F34523454346F
:1012400041343A3420340D34003433342E342034D5
:1012500044346534733470346C34653467346134C9
:101260007234203450344F345234543442343A348B
:0612700020340D340034AF
:04400E00C430FF3F7C
:00000001FF
