:020000040000FA
:060000000A128A110C280F
:10000800FE00030EF1000A08F2000A128A118A287B
:100018000A128A110F2883010A128A1163280330F1
:10002800831603178800890103308316031385009C
:1000380087018312031385018701831603130F14A5
:100048000F168F160F178B17831203130C130B172A
:10005800831603130C179F131F129F128312031387
:100068001F083F3980389F00C3309F051F14213077
:10007800F300F30B3D288316031387140715FA3092
:1000880092003F308312031397051708F0390C3894
:1000980097001D08F0390C389D000F309500CF30BF
:1000A80097058C100330920412158C1C5C285D286F
:1000B80059288C10831603138710071108000A1299
:1000C8008A1113200A128A11831203139F186D28AC
:1000D8006E2868281F0CF400740C0F39003A031DB1
:1000E800762877287C281F08C33904389F007E2883
:1000F800C3309F054230F400F40B802800008312BF
:1001080003139F1468280A128A110C2883120313F8
:100118000C1F8F289028A7281F0CF000700C0F398F
:10012800003A031D98289928A0281E08F0000310FB
:10013800700C7D3E9B00A6281E08F0000310700C72
:100148007D3E95000C1372088A00710E8300FE0E26
:040158007E0E09000E
:04400E00C430FF3F7C
:00000001FF
