:020000040000FA
:060000000A128A110C280F
:10000800FE00030EF0000A08F1000A128A115B28AC
:100018000A128A110F2883010A128A113D288316B1
:1000280003178801890183160313860183120313BA
:100038008601831603130F1470308F0418121815D5
:10004800831603178715CF308316031399009A0177
:100058008312031398171813181683160313981688
:100068000B17831203138C12831603138C168B172A
:1000780008000A128A1113200A128A110630F400A5
:100088001330F300AD30F200F20B4828F30B482888
:10009800F40B48284F28831203130C1E54285528A4
:1000A80042286130990042280A128A110C288312CA
:1000B80003138C1E6028612863281A0886007108BB
:1000C8008A00700E8300FE0E7E0E090000308A0042
:0A00D8000408840A82070034613432
:04400E00C430FF3F7C
:00000001FF
