:020000040000FA
:060000000A128A110C280F
:10000800FE00030EF6000A08F7000A128A11B72C40
:100018000A128A110F28F801F901FA01FB01FC0103
:10002800FD0183120313AC01AD01AE01AF01B001B4
:10003800B101B20183010A128A111C2E0430831205
:100048000313AA000C30A9003330A800A80B2A28F3
:10005800A90B2A28AA0B2A284B3083120313A100C4
:100068008330A2000A128A116A260A128A11043001
:1000780083120313AA000C30A9003330A800A80B80
:100088004328A90B4328AA0B4328A1308312031342
:10009800A1008330A2000A128A116A260A128A1164
:1000A800043083120313AA000C30A9003330A800CF
:1000B800A80B5C28A90B5C28AA0B5C2800308312CB
:1000C8000313A1008330A2000A128A116A260A12B9
:1000D8008A11831203138C1E722873286D283130FD
:1000E8001A06031D782879285D2A693083120313BC
:1000F800A1008330A2000A128A116A260A128A1104
:10010800023083120313AA000430A900B930A800F2
:10011800A80B8C28A90B8C28AA0B8C289328AC3008
:1001280083120313A1008430A2000A128A116A26DE
:100138000A128A11023083120313AA000430A9009C
:10014800B930A800A80BA628A90BA628AA0BA62890
:10015800AD28083083120313A1008430A2000A12CC
:100168008A116A260A128A11023083120313AA001E
:100178000430A900B930A800A80BC028A90BC028D2
:10018800AA0BC028C7282B3083120313A100833081
:10019800A2000A128A116A260A128A11831203130C
:1001A8008C1ED728D828D22831301A06031DDD28FE
:1001B800DE285829863083120313A1008330A20059
:1001C8000A128A116A260A128A110230831203134C
:1001D800AA000430A900B930A800A80BF128A90B7F
:1001E800F128AA0BF128F828753083120313A1000F
:1001F8008430A2000A128A116A260A128A11023071
:1002080083120313AA000430A900B930A800A80B70
:100218000B29A90B0B29AA0B0B291229563083127B
:100228000313A1008430A2000A128A116A260A1256
:100238008A11023083120313AA000430A900B930CE
:10024800A800A80B2529A90B2529AA0B25292C29A3
:100258009F3083120313A1008430A2000A128A116E
:100268006A260A128A11831203138C1E3C293D291F
:10027800372961301A06031D422943294629FA30D5
:100288009500582962301A06031D4B294C294F291D
:100298007D309500582963301A06031D54295529C5
:1002A8005829BC309500582932301A06031D5D299B
:1002B8005E29D8291E3083120313A1008430A200BE
:1002C8000A128A116A260A128A110230831203134B
:1002D800AA000430A900B930A800A80B7129A90BFD
:1002E8007129AA0B71297829663083120313A1009A
:1002F8008430A2000A128A116A260A128A11023070
:1003080083120313AA000430A900B930A800A80B6F
:100318008B29A90B8B29AA0B8B299229913083123F
:100328000313A1008430A2000A128A116A260A1255
:100338008A11023083120313AA000430A900B930CD
:10034800A800A80BA529A90BA529AA0BA529AC29A2
:10035800833083120313A1008430A2000A128A1189
:100368006A260A128A11831203138C1EBC29BD291E
:10037800B72961301A06031DC229C329C629FA30D4
:100388009B00D82962301A06031DCB29CC29CF2916
:100398007D309B00D82963301A06031DD429D5293E
:1003A800D829BC309B00D82933301A06031DDD2913
:1003B800DE297D2ABB3083120313A1008330A200FB
:1003C8000A128A116A260A128A110230831203134A
:1003D800AA000430A900B930A800A80BF129A90B7C
:1003E800F129AA0BF129F829D53083120313A100AA
:1003F8008330A2000A128A116A260A128A11023070
:1004080083120313AA000430A900B930A800A80B6E
:100418000B2AA90B0B2AAA0B0B2A122AEF308312DC
:100428000313A1008330A2000A128A116A260A1255
:100438008A11023083120313AA000430A900B930CC
:10044800A800A80B252AA90B252AAA0B252A2C2A9D
:10045800443083120313A1008430A2000A128A11C7
:100468006A260A128A11831203138C1E3C2A3D2A1B
:10047800372A61301A06031D422A432A482AFF30C8
:10048800AC000030AD007D2A62301A06031D4D2AEB
:100498004E2A512AAC01AD017D2A63301A06031D8C
:1004A800562A572A5C2A7F30AC000030AD007D2ADE
:1004B8007D2A32301A06031D622A632A7D2A0630F5
:1004C80083120313AA001330A900AD30A800A80BAB
:1004D8006B2AA90B6B2AAA0B6B2A323083120313DF
:1004E800A1008430A2000A128A116A260A128A110F
:1004F800F8010800FF1B882A83137F188317000858
:10050800840A0319FF0A08007F087F398A00040853
:08051800840A0319FF0A8200A6
:10060000203428343234293420347934613420348D
:100610006E346F342C3420347934613420346E34A9
:100620006F342034713475346934653472346F3406
:1006300020346834613463346534723420346E3469
:10064000613464346134203455346E3455343A3472
:1006500020340D3400340D340D3420342834333438
:10066000293420344E346934743472346F342C3469
:1006700020346C3461342034763465346C346F3417
:1006800063346934643461346434203470347534D0
:100690006534733400340D3420344534733463349A
:1006A0006F3467346534203475346E3461342034EB
:1006B0006F347034633469346F346E342C342034C6
:1006C00063346834613476346F343A3420340D3412
:1006D00000340D340D3451347534653420346D34A8
:1006E0006F3474346F34723420346434653473344A
:1006F00065346134203463346F346E34743472344E
:100700006F346C34613472343A3400340D340D3447
:10071000203470346134203464346F346E34643483
:10072000653420347134753465347234653473340F
:100730002034673469347234613472343F343A346B
:1007400000342034283431342934203443346F3495
:100750006E34743472346F346C34613472342034D7
:100760006D346F3474346F347234653473343A34A6
:1007700020340D3400340D340D34203451347534AC
:1007800065342034763465346C346F3463346934C2
:1007900064346134643420347134753469346534BC
:1007A000723465343F343A3400340D340D3420341F
:1007B000283461342934203472346134703469341B
:1007C00064346F34733420347934203466347534AF
:1007D000723469346F3473346F34733400340D34CD
:1007E0000D34203428346234293420346A3475348A
:1007F000653420346D3461346434723465342C349F
:1008000020346634723465346E34613472340034AA
:100810000D340D3420342834323429344D346F34BF
:1008200064346F342034643465346C34203461347F
:100830006C34653472346F346E3400340D340D34DE
:1008400020346D346F3464346F3420346434653450
:100850006C34203461346C34653472346F346E34EB
:100860003A3400340D340D344134643469346F3417
:1008700073342034633468346F34723469347034C0
:1008800061346E340D3400340D340D34203428348A
:10089000633429346D34653468342C3420346E3438
:1008A0006F3472346D3461346C3400340D340D3473
:1008B000203428346234293449347A34713475341C
:1008C0006934653472346434613400340D340D3469
:1008D0002034283461342934203463346134723450
:1008E000723465347234613400340D340D34203484
:1008F00028346134293444346534723465346334C3
:100900006834613400340D340D34203428346334B9
:10091000293420346E346F3472346D3461346C3465
:1009200000340D340D34203428346234293420341A
:100930006634723461346E3464346F3400340D3490
:100940000D342034283463342934433465346E3410
:10095000743472346F3400340D340D342034283440
:10096000313429344734693472346F34003483129B
:1009700003130C1FBC2CBD2CF62C1F0CF300730CA6
:100980000F39003A031DC52CC62CD12C1E08F300CC
:100990007308FA007A08F3000310730C7D3E95008B
:1009A000F52C1F0CF300730C0F39013A031DD92CE1
:1009B000DA2CE52C1E08F3007308F9007908F3001F
:1009C0000310730C7D3E9B00F52C1F0CF300730C81
:1009D0000F39023A031DED2CEE2CF52C1E08F30006
:1009E000F4017308AC007408AD000C130B1DF92C56
:1009F000FA2C202D0130AE070318AF0A0030AF07E4
:100A00002F08803AF3002D08803A7302031D0A2D47
:100A10002C082E02031C0D2D0E2D132D83120313F3
:100A200008108810172D83120313081488142E0A37
:100A30002F04031D1C2D1D2D1F2DAE01AF010B1109
:100A40000B1C232D242D932D061B272D282D4B2DDC
:100A500009141730F3007308F0007A080A128A119B
:100A600092260A128A111830F3007308F0007908F0
:100A70000A128A1192260A128A110330F5008A306E
:100A8000F4005530F300F30B432DF40B432DF50B1D
:100A9000432D4A2D922D861B4E2D4F2D822D1F103A
:100AA000891417300A128A11AE260A128A11F3002D
:100AB0007308FC0018300A128A11AE260A128A1135
:100AC000F3007308FB007C08F3000310730C7D3EF9
:100AD0008312031395007B08F3000310730C7D3E13
:100AE0009B001530F5004B30F400BE30F300F30BE3
:100AF000772DF40B772DF50B772D00008312031360
:100B00001F14922D861A852D862D902D7808031D91
:100B10008A2D8B2D8E2DF801F80A922DF801922D39
:100B2000091089100B1077088A00760E8300FE0EDC
:100B30007E0E09000F3083160317880089010F30DD
:100B4000831603138500E030860087018801890140
:100B500083120313850186018701880189018316A9
:100B600003130F1470308F04811315179517951602
:100B70001617961796169F131F129F1283120313B0
:100B80001F083F3980389F00C3309F051F14413034
:100B900083120313A000A00BCB2DCE2D83160313BD
:100BA00087140715FA3092003F308312031397051C
:100BB0001708F0390C3897001D08F0390C389D00E3
:100BC0000F309500CF3097050C13831603130C17C5
:100BD0000B178B160B118B150B148B17831203132A
:100BE0008C100330920412158C1CF72DF82DF42D67
:100BF0008C108316031387100711811281110108CD
:100C0000F83903388100F63083120313810083160C
:100C1000031318121815831603178715CF30831680
:100C2000031399009A0183120313981718131816C7
:100C300083160313981608000A128A119A250A12BD
:100C40008A11831203139F147803031D282E292E63
:100C50002F2E0A128A1122200A128A11242E8312A0
:100C600003139F18342E352E242E1F0CAB002B0C93
:100C70000F39003A031D3D2E3E2E432E1F08C33967
:100C800004389F005C2E1F0CAB002B0C0F39013A6F
:100C9000031D4B2E4C2E512E1F08C33908389F00C0
:100CA0005C2E1F0CAB002B0C0F39023A031D592E82
:100CB0005A2E5C2EC3309F05413083120313AB00C4
:100CC000AB0B602E632E831203139F14242E0A1283
:100CD0008A110C28233083120313A3002308A600D3
:100CE000772E27080A128A11BF260A128A11831248
:100CF00003132208A4002108A300A10A0319A20AD1
:100D00002408FF00230884000A128A117E220A1296
:100D10008A11A5002508A7002708031D902E912EF3
:100D2000712E0800F1007008831203178D007108FE
:100D30008C008B13831603178C130C1555308D0004
:100D4000AA308D008C14831203130D1EA82EA92E19
:100D5000A32E0D12831603170C110800F100710861
:100D6000831203178D00831603178C130C14831240
:100D700003170C08F0007008F200720808008312D4
:100D80000313A0000C1EC52EC62EC22E20089900EB
:020D9000080059
:04400E00C430FF3F7C
:00000001FF
