:020000040000FA
:060000000A128A110C280F
:10000800FE00030EF6000A08F7000A128A112128DA
:100018000A128A110F28F801F901FA01FB01FC0103
:10002800FD0183120313A001A101A201A301A401F0
:10003800A50183010A128A116229831203130C1F76
:100048002628272860281F0CF300730C0F39003A64
:10005800031D2F2830283B281E08F3007308F900D9
:100068007908F3000310730C7D3E95005F281F0C80
:10007800F300730C0F39013A031D432844284F2815
:100088001E08F3007308F8007808F3000310730CD7
:100098007D3E9B005F281F0CF300730C0F39023A5A
:1000A800031D572858285F281E08F300F401730819
:1000B800A0007408A1000C130B1D632864288A286B
:1000C8000130A2070318A30A0030A3072308803AC7
:1000D800F3002108803A7302031D742820082202C5
:1000E800031C772878287D288312031308108810AA
:1000F80081288312031308148814220A2304031D79
:10010800862887288928A201A3010B110B1C8D289A
:100118008E28EF28061B91289228B5280914173035
:10012800F3007308F00079080A128A11A3210A1251
:100138008A111830F3007308F00078080A128A113F
:10014800A3210A128A110330F5008A30F4005530D1
:10015800F300F30BAD28F40BAD28F50BAD28B4284C
:10016800EE28861BB828B928EC281F1089141730E8
:100178000A128A11BF210A128A11F3007308FB00C0
:1001880018300A128A11BF210A128A11F300730863
:10019800FA007B08F3000310730C7D3E83120313EF
:1001A80095007A08F3000310730C7D3E9B00153010
:1001B800F5004B30F400BE30F300F30BE128F40BEC
:1001C800E128F50BE1280000831203131F14EE2821
:1001D800091089100B1077088A00760E8300FE0E2E
:1001E8007E0E09000F3083160317880089010F302F
:1001F800831603138500C0308600870188018901B2
:1002080083120313850186018701880189018316FA
:1002180003130F1470308F048113151795171617D1
:1002280096179F131F129F12831203131F083F393B
:1002380080389F00C3309F051F1441308312031379
:10024800A600A60B2529282983160313871407154A
:10025800FA3092003F308312031397051708F039DC
:100268000C3897001D08F0390C389D000F309500A8
:10027800CF3097050C13831603130C170B178B1627
:100288000B118B150B148B17831203138C1003306F
:10029800920412158C1C512952294E298C10831650
:1002A800031387100711811281110108F8390338E7
:1002B8008100F63083120313810008000A128A11A4
:1002C800F6200A128A11831203139F149F186D29AE
:1002D8006E296A291F0CA700270C0F39003A031D45
:1002E800762977297C291F08C33904389F00952966
:1002F8001F0CA700270C0F39013A031D84298529F3
:100308008A291F08C33908389F0095291F0CA700A0
:10031800270C0F39023A031D922993299529C330D6
:100328009F05413083120313A700A70B99299C2925
:10033800831203139F146A290A128A110C28F100E8
:100348007008831203178D0071088C008B138316B5
:1003580003178C130C1555308D00AA308D008C14A2
:10036800831203130D1EB929BA29B4290D12831655
:1003780003170C110800F1007108831203178D0090
:10038800831603178C130C14831203170C08F00040
:080398007008F2007208080071
:04400E00C430FF3F7C
:00000001FF
