:020000040000FA
:060000000A128A110C280F
:10000800FE00030EF8000A08F9000A128A111928DE
:100018000A128A110F28F001F101F201F301F4012B
:10002800F50183010A128A11E128831203130C1FB8
:100038001E281F2850281F0CF600760C0F39003A8E
:10004800031D272828282F281E08F6000310760CE1
:100058007D3E95004F281F0CF600760C0F39013AAB
:10006800031D372838283F281E08F6000310760C91
:100078007D3E9B004F281F0CF600760C0F39023A84
:10008800031D472848284F281E08F600F701760860
:10009800F0007708F1000C130B1D532854287A2818
:1000A8000130F2070318F30A0030F3077308803AA7
:1000B800F6007108803A7602031D642870087202FF
:1000C800031C672868286D288312031308108810FA
:1000D80071288312031308148814720A7304031D09
:1000E800762877287928F201F3010B1179088A001C
:1000F800780E8300FE0E7E0E09000F30831603175C
:10010800880089010F308316031385008601870153
:1001180088018312031385018601870188018316EC
:1001280003130F1470308F049F131F129F12831232
:1001380003131F083F3980389F00C3309F051F14E1
:100148004230FA00FA0BA62800008316031387141E
:100158000715FA3092003F308312031397051708EA
:10016800F0390C3897001D08F0390C389D000F3015
:100178009500CF3097050C13831603130C170B1734
:100188008B160B118B17831203138C1003309204F8
:1001980012158C1CD028D128CD288C108316031357
:1001A80087100711811281110108F839033881007D
:1001B800F63083120313810008000A128A11812085
:1001C8000A128A11831203139F149F18EC28ED2832
:1001D800E9281F0CFB007B0C0F39003A031DF5289A
:1001E800F628FB281F08C33904389F0014291F0C60
:1001F800FB007B0C0F39013A031D03290429092947
:100208001F08C33908389F0014291F0CFB007B0CFA
:100218000F39023A031D112912291429C3309F05E9
:100228004230FB00FB0B16290000831203139F14B6
:08023800E9280A128A110C28C2
:04400E00C430FF3F7C
:00000001FF
