:020000040000FA
:060000000A128A110C280F
:10000800FE00030EF1000A08F2000A128A11AB285A
:100018000A128A110F2883010A128A1167280F30E1
:1000280083160317880089010F3083160313850090
:1000380086018701880183120313850186018701E0
:100048008801831603130F1470308F049F131F1237
:100058009F12831203131F083F3980389F00C33053
:100068009F051F144230F300F30B38280000831655
:10007800031387140715FA3092003F3083120313D5
:1000880097051708F0390C3897001D08F0390C3817
:100098009D000F309500CF3097050C13831603137E
:1000A8000C170B178B17831203138C100330920451
:1000B80012158C1C602861285D288C108316031388
:1000C8008710071108000A128A1113200A128A11D0
:1000D800831203139F149F18722873286F281F0C0C
:1000E800F400740C0F39003A031D7B287C28812802
:1000F8001F08C33904389F009F281F0CF400740C94
:100108000F39013A031D89288A288F281F08C33907
:1001180008389F009F281F0CF400740C0F39023A0E
:10012800031D972898289D281F08C3390C389F005D
:100138009F28C3309F054230F400F40BA12800002B
:10014800831203139F146F280A128A110C28831232
:1001580003130C1FB028B128C7281F0CF000700C1F
:100168000F39003A031DB928BA28C6281E08F0001E
:100178000310700C7D3E9B001E08F0000310700CED
:100188007D3E95000C1372088A00710E8300FE0EE6
:040198007E0E0900CE
:04400E00C430FF3F7C
:00000001FF
